{
  "contractName": "Crowdsale",
  "abi": [
    {
      "constant": true,
      "inputs": [],
      "name": "deadline",
      "outputs": [
        {
          "name": "",
          "type": "uint256"
        }
      ],
      "payable": false,
      "stateMutability": "view",
      "type": "function"
    },
    {
      "constant": true,
      "inputs": [],
      "name": "beneficiary",
      "outputs": [
        {
          "name": "",
          "type": "address"
        }
      ],
      "payable": false,
      "stateMutability": "view",
      "type": "function"
    },
    {
      "constant": true,
      "inputs": [],
      "name": "tokenReward",
      "outputs": [
        {
          "name": "",
          "type": "address"
        }
      ],
      "payable": false,
      "stateMutability": "view",
      "type": "function"
    },
    {
      "constant": true,
      "inputs": [
        {
          "name": "",
          "type": "address"
        }
      ],
      "name": "balanceOf",
      "outputs": [
        {
          "name": "",
          "type": "uint256"
        }
      ],
      "payable": false,
      "stateMutability": "view",
      "type": "function"
    },
    {
      "constant": true,
      "inputs": [],
      "name": "fundingGoal",
      "outputs": [
        {
          "name": "",
          "type": "uint256"
        }
      ],
      "payable": false,
      "stateMutability": "view",
      "type": "function"
    },
    {
      "constant": true,
      "inputs": [],
      "name": "amountRaised",
      "outputs": [
        {
          "name": "",
          "type": "uint256"
        }
      ],
      "payable": false,
      "stateMutability": "view",
      "type": "function"
    },
    {
      "constant": true,
      "inputs": [],
      "name": "price",
      "outputs": [
        {
          "name": "",
          "type": "uint256"
        }
      ],
      "payable": false,
      "stateMutability": "view",
      "type": "function"
    },
    {
      "inputs": [
        {
          "name": "ifSuccessfulSendTo",
          "type": "address"
        },
        {
          "name": "fundingGoalInEthers",
          "type": "uint256"
        },
        {
          "name": "durationInMinutes",
          "type": "uint256"
        },
        {
          "name": "etherCostOfFakeToken",
          "type": "uint256"
        },
        {
          "name": "rewardTokenAddress",
          "type": "address"
        }
      ],
      "payable": false,
      "stateMutability": "nonpayable",
      "type": "constructor"
    },
    {
      "payable": true,
      "stateMutability": "payable",
      "type": "fallback"
    },
    {
      "anonymous": false,
      "inputs": [
        {
          "indexed": false,
          "name": "recipient",
          "type": "address"
        },
        {
          "indexed": false,
          "name": "totalAmountRaised",
          "type": "uint256"
        }
      ],
      "name": "GoalReached",
      "type": "event"
    },
    {
      "anonymous": false,
      "inputs": [
        {
          "indexed": false,
          "name": "funder",
          "type": "address"
        },
        {
          "indexed": false,
          "name": "amount",
          "type": "uint256"
        },
        {
          "indexed": false,
          "name": "isContribution",
          "type": "bool"
        }
      ],
      "name": "FundTransfer",
      "type": "event"
    },
    {
      "anonymous": false,
      "inputs": [
        {
          "indexed": false,
          "name": "message",
          "type": "string"
        }
      ],
      "name": "LogFallback",
      "type": "event"
    },
    {
      "constant": false,
      "inputs": [],
      "name": "checkGoalReached",
      "outputs": [],
      "payable": false,
      "stateMutability": "nonpayable",
      "type": "function"
    },
    {
      "constant": false,
      "inputs": [],
      "name": "safeWithdrawal",
      "outputs": [],
      "payable": false,
      "stateMutability": "nonpayable",
      "type": "function"
    }
  ],
  "bytecode": "0x60606040526000600760006101000a81548160ff0219169083151502179055506000600760016101000a81548160ff021916908315150217905550341561004557600080fd5b60405160a080610bc083398101604052808051906020019091908051906020019091908051906020019091908051906020019091908051906020019091905050846000806101000a81548173ffffffffffffffffffffffffffffffffffffffff021916908373ffffffffffffffffffffffffffffffffffffffff160217905550670de0b6b3a76400008402600181905550603c83024201600381905550670de0b6b3a7640000820260048190555080600560006101000a81548173ffffffffffffffffffffffffffffffffffffffff021916908373ffffffffffffffffffffffffffffffffffffffff1602179055505050505050610a78806101486000396000f300606060405260043610610099576000357c0100000000000000000000000000000000000000000000000000000000900463ffffffff16806301cb3b20146103b257806329dcb0cf146103c757806338af3eed146103f05780636e66f6e91461044557806370a082311461049a5780637a3a0e84146104e75780637b3e5e7b14610510578063a035b1fe14610539578063fd6b7ef814610562575b60007f7be0c02701573407689a2d6c44902697d15a6181717171fb07f0270b225eaddc6040518080602001828103825260188152602001807f46616c6c6261636b2066756e6374696f6e2063616c6c6564000000000000000081525060200191505060405180910390a1600760019054906101000a900460ff1615151561011f57600080fd5b7f7be0c02701573407689a2d6c44902697d15a6181717171fb07f0270b225eaddc60405180806020018281038252601b8152602001807f43726f776473616c65206973206e6f7420636c6f73656420796574000000000081525060200191505060405180910390a13490506101dc81600660003373ffffffffffffffffffffffffffffffffffffffff1673ffffffffffffffffffffffffffffffffffffffff1681526020019081526020016000205461057790919063ffffffff16565b600660003373ffffffffffffffffffffffffffffffffffffffff1673ffffffffffffffffffffffffffffffffffffffff168152602001908152602001600020819055506102348160025461057790919063ffffffff16565b600281905550600560009054906101000a900473ffffffffffffffffffffffffffffffffffffffff1673ffffffffffffffffffffffffffffffffffffffff1663a9059cbb3361028e6004548561059590919063ffffffff16565b6000604051602001526040518363ffffffff167c0100000000000000000000000000000000000000000000000000000000028152600401808373ffffffffffffffffffffffffffffffffffffffff1673ffffffffffffffffffffffffffffffffffffffff16815260200182815260200192505050602060405180830381600087803b151561031b57600080fd5b6102c65a03f1151561032c57600080fd5b50505060405180519050507fe842aea7a5f1b01049d752008c53c52890b1a6daf660cf39e8eec506112bbdf633826001604051808473ffffffffffffffffffffffffffffffffffffffff1673ffffffffffffffffffffffffffffffffffffffff16815260200183815260200182151515158152602001935050505060405180910390a150005b34156103bd57600080fd5b6103c56105ab565b005b34156103d257600080fd5b6103da610690565b6040518082815260200191505060405180910390f35b34156103fb57600080fd5b610403610696565b604051808273ffffffffffffffffffffffffffffffffffffffff1673ffffffffffffffffffffffffffffffffffffffff16815260200191505060405180910390f35b341561045057600080fd5b6104586106bb565b604051808273ffffffffffffffffffffffffffffffffffffffff1673ffffffffffffffffffffffffffffffffffffffff16815260200191505060405180910390f35b34156104a557600080fd5b6104d1600480803573ffffffffffffffffffffffffffffffffffffffff169060200190919050506106e1565b6040518082815260200191505060405180910390f35b34156104f257600080fd5b6104fa6106f9565b6040518082815260200191505060405180910390f35b341561051b57600080fd5b6105236106ff565b6040518082815260200191505060405180910390f35b341561054457600080fd5b61054c610705565b6040518082815260200191505060405180910390f35b341561056d57600080fd5b61057561070b565b005b600080828401905083811015151561058b57fe5b8091505092915050565b600081838115156105a257fe5b04905092915050565b60035442101515156105bc57600080fd5b600154600254101515610673576001600760006101000a81548160ff0219169083151502179055507fec3f991caf7857d61663fd1bba1739e04abd4781238508cde554bb849d790c856000809054906101000a900473ffffffffffffffffffffffffffffffffffffffff16600254604051808373ffffffffffffffffffffffffffffffffffffffff1673ffffffffffffffffffffffffffffffffffffffff1681526020018281526020019250505060405180910390a15b6001600760016101000a81548160ff021916908315150217905550565b60035481565b6000809054906101000a900473ffffffffffffffffffffffffffffffffffffffff1681565b600560009054906101000a900473ffffffffffffffffffffffffffffffffffffffff1681565b60066020528060005260406000206000915090505481565b60015481565b60025481565b60045481565b6000600354421015151561071e57600080fd5b600760009054906101000a900460ff1615156108c257600660003373ffffffffffffffffffffffffffffffffffffffff1673ffffffffffffffffffffffffffffffffffffffff1681526020019081526020016000205490506000600660003373ffffffffffffffffffffffffffffffffffffffff1673ffffffffffffffffffffffffffffffffffffffff1681526020019081526020016000208190555060008111156108c1573373ffffffffffffffffffffffffffffffffffffffff166108fc829081150290604051600060405180830381858888f193505050501561087b577fe842aea7a5f1b01049d752008c53c52890b1a6daf660cf39e8eec506112bbdf633826000604051808473ffffffffffffffffffffffffffffffffffffffff1673ffffffffffffffffffffffffffffffffffffffff16815260200183815260200182151515158152602001935050505060405180910390a16108c0565b80600660003373ffffffffffffffffffffffffffffffffffffffff1673ffffffffffffffffffffffffffffffffffffffff168152602001908152602001600020819055505b5b5b600760009054906101000a900460ff16801561092a57503373ffffffffffffffffffffffffffffffffffffffff166000809054906101000a900473ffffffffffffffffffffffffffffffffffffffff1673ffffffffffffffffffffffffffffffffffffffff16145b15610a49576000809054906101000a900473ffffffffffffffffffffffffffffffffffffffff1673ffffffffffffffffffffffffffffffffffffffff166108fc6002549081150290604051600060405180830381858888f1935050505015610a2c577fe842aea7a5f1b01049d752008c53c52890b1a6daf660cf39e8eec506112bbdf66000809054906101000a900473ffffffffffffffffffffffffffffffffffffffff166002546000604051808473ffffffffffffffffffffffffffffffffffffffff1673ffffffffffffffffffffffffffffffffffffffff16815260200183815260200182151515158152602001935050505060405180910390a1610a48565b6000600760006101000a81548160ff0219169083151502179055505b5b505600a165627a7a723058208a7ab029c7a5bcd31595c805443f73126840169b45552f4d1ee376b557322cff0029",
  "source": "pragma solidity ^0.4.19;\n\nimport \"../token/FakeToken.sol\";\nimport \"../utils/SafeMath.sol\";\n\ncontract Crowdsale {\n    using SafeMath for uint256;\n\n    address public beneficiary;\n    uint public fundingGoal;\n    uint public amountRaised;\n    uint public deadline;\n    uint public price;\n    FakeToken public tokenReward;\n    mapping(address => uint256) public balanceOf;\n    bool fundingGoalReached = false;\n    bool crowdsaleClosed = false;\n\n    event GoalReached(address recipient, uint totalAmountRaised);\n    event FundTransfer(address funder, uint amount, bool isContribution);\n    event LogFallback(string message);\n\n    /**\n     * Constructor function\n     *\n     * Setup the owner\n     */\n    function Crowdsale (\n        address ifSuccessfulSendTo,\n        uint fundingGoalInEthers,\n        uint durationInMinutes,\n        uint etherCostOfFakeToken,\n        address rewardTokenAddress\n    ) public {\n        beneficiary = ifSuccessfulSendTo;\n        fundingGoal = fundingGoalInEthers * 1 ether;\n        deadline = now + durationInMinutes * 1 minutes;\n        price = etherCostOfFakeToken * 1 ether;\n        tokenReward = FakeToken(rewardTokenAddress);\n    }\n\n    /**\n     * Fallback function\n     *\n     * The function without name is the default function \n     * that is called whenever anyone sends funds to a contract\n     */\n    function () external payable {\n        LogFallback(\"Fallback function called\");\n        require(!crowdsaleClosed);\n        LogFallback(\"Crowdsale is not closed yet\");\n        uint amount = msg.value;\n        balanceOf[msg.sender] = balanceOf[msg.sender].add(amount);\n        amountRaised = amountRaised.add(amount);\n        tokenReward.transfer(msg.sender, amount.div(price));\n        FundTransfer(msg.sender, amount, true);\n    }\n\n    modifier afterDeadline() { \n        require(now >= deadline);\n        _;\n    }\n\n    /**\n     * Check if goal was reached\n     *\n     * Checks if the goal or time limit has been reached and ends the campaign\n     */\n    function checkGoalReached() public afterDeadline {\n        if (amountRaised >= fundingGoal) {\n            fundingGoalReached = true;\n            GoalReached(beneficiary, amountRaised);\n        }\n        crowdsaleClosed = true;\n    }\n\n    /**\n     * Withdraw the funds\n     *\n     * Checks to see if goal or time limit has been reached, \n     * and if so, and the funding goal was reached,\n     * sends the entire amount to the beneficiary. \n     * If goal was not reached, each contributor can withdraw\n     * the amount they contributed.\n     */\n    function safeWithdrawal() public afterDeadline {\n        if (!fundingGoalReached) {\n            uint amount = balanceOf[msg.sender];\n            balanceOf[msg.sender] = 0;\n            if (amount > 0) {\n                if (msg.sender.send(amount)) {\n                    FundTransfer(msg.sender, amount, false);\n                } else {\n                    balanceOf[msg.sender] = amount;\n                }\n            }\n        }\n\n        if (fundingGoalReached && beneficiary == msg.sender) {\n            if (beneficiary.send(amountRaised)) {\n                FundTransfer(beneficiary, amountRaised, false);\n            } else {\n                //If we fail to send the funds to beneficiary, unlock funders balance\n                fundingGoalReached = false;\n            }\n        }\n    }\n}\n\n",
  "sourcePath": "/home/mmorca/Projects/Dapps/fake-token/contracts/crowdsale/Crowdsale.sol",
  "compiler": {
    "name": "solc",
    "version": "0.4.19+commit.c4cbbb05.Emscripten.clang"
  },
  "schemaVersion": "1.0.1",
  "updatedAt": "2018-04-21T10:28:52.960Z"
}